:100000000C947A010C94AB010C94AB010C94AB01F1
:100010000C94AB010C94AB010C94AB010C94AB01B0
:100020000C94AB010C94AB010C94AB010C94AB01A0
:100030000C94AB010C94AB010C94AB010C94AB0190
:100040000C94AB010C94AB010C94AB010C94AB0180
:100050000C94AB010C94AB010C94AB010C943E13CB
:100060000C94AB010C94B2130C9488130C94AB0158
:100070000C94AB010C94AB010C94AB010C94AB0150
:100080000C94AB010C94AB010C94AB010C94AB0140
:100090000C94AB010C94AB010C94AB010C94E813E1
:1000A0000C94AB010C94AB010C94AB010C94AB0120
:1000B0000C94AB010C94AB010C94AB010C94AB0110
:1000C0000C94AB010C94AB010C94AB010C94AB0100
:1000D0000C94AB010C94AB010C94AB010C94AB01F0
:1000E0000C94AB010C944B0D0C94F21A0C942E0250
:1000F0000C941B030C94A81A0C94121B0C94380239
:100100000C9403020C94B9100C94FB0E0C94F9029D
:100110000C94980D0C9421020C94CC010C94A00327
:100120000C94EA020C94101B0C94420D0C944202A5
:100130000C94AA100C94CD010C940D030C94CC10CB
:100140000C94310D0C9450020C9419020C94D310A1
:100150000C9400110C9424020C94D70E0C942B0BCD
:100160000C942A020C9453030C94FE1A0C9446022D
:100170000C94051B0C9415020C94A91A0C940E1BDC
:100180000C94A9100C946A180C9454020C9443110A
:100190000C947B0D0C9434020C946B0D0C941D028A
:1001A0000C94BD020C940C1B0C94DD120C944A02AE
:1001B0000C94CD0E0C94FE010C943C027C3C3E5EF3
:1001C0002B3D3F2F5B5D3B2C2A225C001F1C1F1E1A
:1001D0001F1E1F1F1E1F1E31353A31303A323900A3
:1001E0004A756E20313120323032340000000A0B63
:1001F00002090C0D0E0807030401000000000000B6
:1002000000000000000000000000000000000000EE
:1002100000000000000000001211100000000000AB
:1002200000000000000000000000000000000000CE
:10023000000000002200250028002B002E003100C5
:10024000340002010000050108010B01000021003B
:10025000240027002A002D00300033000101000097
:10026000040107010A010505050507050808080836
:10027000020202020A0A080804040404010101013E
:100280000101010103030303030303030407070739
:100290000C0C0C0C0C0C0C0C0202020206060606DE
:1002A000060606060B0B0B0B0B0B0B0B01021020AB
:1002B000200808102040102040800201020108049C
:1002C0000201010204081020408080402010080430
:1002D0000201800402018040201008040201080489
:1002E00002010102040810204080010204081020CD
:1002F00040806A1811241FBECFEFD1E2DEBFCDBF10
:1003000000E00CBF28E0A2E5B4E001C01D92A134DA
:10031000B207E1F714E0A0E0B2E0E2E9FDE300E0BB
:100320000BBF02C007900D92A235B107D9F711E0BB
:10033000CAE7D1E000E006C021970109802FFE0145
:100340000E947E1DC937D10780E00807A9F70E94E7
:10035000DD180C94C71E0C94000090E0FC01E455DD
:10036000FD4F24918A599D4FFC018491882399F077
:1003700090E0880F991FFC01E45BFD4FA591B491BB
:10038000FC01EE5CFD4F859194918FB7F894EC9150
:10039000E22BEC938FBF089508950895282F30E045
:1003A000F901E451FE4F9491F901E455FD4F449158
:1003B0002A593D4FF9012491222309F435C099238C
:1003C00011F191509231F8F4E92FF0E08827E451CF
:1003D000FE4F8F4F0C947E1D1D022102FE0115025F
:1003E0001902030224022A022E02340238023C02BD
:1003F0004202460203024A025002540280918000E7
:100400008F7780938000E22FF0E0EE0FFF1FEE5C0D
:10041000FD4FA591B4918FB7F894EC91611148C04C
:1004200040954E234C938FBF0895809180008F7D1F
:10043000E8CF80918000877FE4CF84B58F7784BD3B
:10044000E2CF84B58F7DFBCF8091B0008F77809312
:10045000B000D9CF8091B0008F7DF9CF809190000E
:100460008F7780939000CFCF809190008F7DF9CFD0
:1004700080919000877FF5CF8091A0008F77809347
:10048000A000C1CF8091A0008F7DF9CF8091A00006
:10049000877FF5CF809120018F7780932001B3CFA4
:1004A000809120018F7DF9CF80912001877FF5CF4A
:1004B0004E2BB8CF3FB7F8948091A3049091A40439
:1004C000A091A504B091A60426B5A89B05C02F3F16
:1004D00019F00196A11DB11D3FBFBA2FA92F982F6A
:1004E0008827BC01CD01620F711D811D911D42E065
:1004F000660F771F881F991F4A95D1F708958F922D
:100500009F92AF92BF92CF92DF92EF92FF924B01F8
:100510005C010E945A026B017C010E945A026C1914
:100520007D098E099F09683E734081059105A8F3F6
:1005300021E0821A9108A108B10888EEC80E83E074
:10054000D81EE11CF11C81149104A104B10429F707
:10055000FF90EF90DF90CF90BF90AF909F908F90E3
:1005600008952FB7F89460919F047091A004809132
:10057000A1049091A2042FBF0895AF92BF92CF9291
:10058000DF92EF92FF920F931F93CF93DF936C0153
:100590007B018B01040F151FEB015E01AE18BF0834
:1005A000C017D10759F06991D601ED91FC910190E6
:1005B000F081E02DC6011995892B79F7C501DF91EE
:1005C000CF911F910F91FF90EF90DF90CF90BF9050
:1005D000AF900895FC01538D448D252F30E0842F7A
:1005E00090E0821B930B541710F0CF96089501975B
:1005F0000895FC01918D828D981761F0A28DAE0F48
:10060000BF2FB11D5D968C91928D9F5F9F73928FCE
:1006100090E008958FEF9FEF0895FC01918D828DFA
:10062000981731F0828DE80FF11D858D90E00895C7
:100630008FEF9FEF0895FC01918D228D892F90E01F
:10064000805C9F4F821B91098F739927089581E2E7
:1006500097E00E941B0321E0892B09F420E0822F00
:100660000895FC01A48DA80FB92FB11DA35ABF4F47
:100670002C91848D90E001968F739927848FA689A1
:10068000B7892C93A089B1898C91837080648C93F5
:10069000938D848D981306C00288F389E02D8081A4
:1006A0008F7D80830895EF92FF920F931F93CF93D6
:1006B000DF93EC0181E0888F9B8D8C8D98131AC09D
:1006C000E889F989808185FF15C09FB7F894EE8984
:1006D000FF896083E889F9898081837080648083E1
:1006E0009FBF81E090E0DF91CF911F910F91FF902C
:1006F000EF900895F62E0B8D10E00F5F1F4F0F73D4
:100700001127E02E8C8D8E110CC00FB607FCFACF8E
:10071000E889F989808185FFF5CFCE010E943103F8
:10072000F1CFEB8DEC0FFD2FF11DE35AFF4FF0825F
:100730009FB7F8940B8FEA89FB8980818062CFCFC5
:10074000CF93DF93EC01888D8823B9F0AA89BB8908
:10075000E889F9898C9185FD03C0808186FD0DC0F3
:100760000FB607FCF7CF8C9185FFF2CF808185FF14
:10077000EDCFCE010E943103E9CFDF91CF910895F3
:1007800080E090E0892B29F00E94270381110E94CC
:10079000000080E090E0892B49F080E090E0892B18
:1007A00029F00E94000081110E94000080E090E08A
:1007B000892B49F080E090E0892B29F00E9400000D
:1007C00081110E94000080E090E0892B49F080E0D8
:1007D00090E0892B29F00E94000081110C94000008
:1007E00008958FB7F894809197048FBF089561E0C2
:1007F000FC0184810E94CE018091960481111092A7
:10080000960408958EBD00000DB407FEFDCF8EB591
:1008100008958FEF0C9402040F931F93CF93DF93EF
:10082000EC010E94B1028B010E9409048F3F69F024
:100830000E94B102601B710B6C177D07A8F380E06A
:10084000DF91CF911F910F91089581E0F9CF8CBD79
:100850009DBD0895CF93DF93EC01809196048111A3
:1008600009C081E0809396048091BE079091BF07F4
:100870000E94270460E08C81DF91CF910C94CE011F
:100880008F929F92AF92BF92FF920F931F93CF933D
:10089000DF93EC01F62E49015A018E81882389F0FD
:1008A0008F8198859C012F5F3F4F38872F8382303F
:1008B000924018F40E940904F3CFCE010E94F7037E
:1008C0001E82CE010E942A048CE291E00E940C0458
:1008D0008F2D80640E94020408E110E0D501C4015C
:1008E000002E04C0B695A795979587950A94D2F7E0
:1008F0000E94020408501109083F8FEF180771F792
:1009000085E9FF2021F028E087E8F2128FEF0E94AE
:10091000020410E00E9409048A8787FF04C01F3F79
:1009200011F01F5FF7CFDF91CF911F910F91FF90D3
:10093000BF90AF909F908F900895AF92BF92CF924B
:10094000DF92EF92FF920F931F93CF93DF93EC010F
:100950006901C801820F931F8130924050F58E814A
:10096000882379F088819981AA81BB8184179507B2
:10097000A607B70731F48F819885C816D90608F005
:1009800042C0488359836A837B838B85833039F0E7
:1009900089E0440F551F661F771F8A95D1F79A018A
:1009A000AB0161E1CE010E944004882389F083E01D
:1009B0008D83CE010E94F70380E0DF91CF911F91DC
:1009C0000F91FF90EF90DF90CF90BF90AF90089580
:1009D0000E94B1025B010E9409048A878F3F69F47B
:1009E0000E94B1026A197B096D327140A0F38FE059
:1009F0008D83CE010E94F703DCCF8E3F89F41886E9
:100A00001F8281E08E838F8198858C159D0550F41F
:100A10000E9409048F819885019698878F83F3CF70
:100A20008DE0E6CF6701E00EF11E0E940904F60199
:100A300081936F01EE15FF05C1F78F819885080F2F
:100A4000191F18870F838985882319F00115124013
:100A5000A0F08E81882389F08F8198859C012F5F7B
:100A60003F4F38872F838230924018F40E94090448
:100A7000F3CFCE010E94F7031E8281E09ECFCF927A
:100A8000DF92EF92FF920F93CF93DF93EC01690116
:100A900082E1411551056105710599F08B8583301F
:100AA00039F089E0440F551F661F771F8A95D1F7EB
:100AB0009A01AB0168E1CE010E944004882319F03D
:100AC00084E08D832DC08EEF0E94020476018EEFAC
:100AD000D81AF70181917F010E940204EC14FD04F1
:100AE000C1F78FEF0E9402048FEF0E9402040E9460
:100AF00009048A878F71853071F4011116C0CE0107
:100B00000E94F70381E0DF91CF910F91FF90EF906A
:100B1000DF90CF90089581E18D83CE010E94F7038D
:100B2000CE010E94F70380E0EECF88E592E00E94BC
:100B30000C04811102C085E1C4CF20E030E0A9019E
:100B40006DE0CE010E944004882311F084E1B9CF0A
:100B50000E9409048111FACFD2CF0F9340919904DA
:100B600050919A0460919B0470919C044115510529
:100B70006105710599F0082F2FE135E080911F077D
:100B8000909120070E943F05882349F01092990414
:100B900010929A0410929B0410929C0481E00F9191
:100BA00008950F93CF93C82F80919804811105C0A9
:100BB000C1E08C2FCF910F91089540910002509188
:100BC000010260910202709103020C2F2FE135E0C7
:100BD00080911F07909120070E943F05811102C05C
:100BE000C0E0E7CFCC2321F381E00E94AD0588234C
:100BF000B9F310929804DDCF8F929F92AF92BF927B
:100C0000EF92FF920F931F93CF934B015C01C42F80
:100C10008091000290910102A0910202B091030222
:100C200088159905AA05BB0551F181E00E94D105FF
:100C300081110BC080E0CF911F910F91FF90EF9039
:100C4000BF90AF909F908F9008958FE1E82E85E040
:100C5000F82E00E012E030E020E0B501A401809120
:100C60001F07909120070E949D04882319F380920A
:100C7000000290920102A0920202B09203024091FF
:100C800098044C2B4093980481E0D5CF8F929F928B
:100C9000AF92BF92CF92DF92EF92FF92CF9320EC70
:100CA00037E03093200720931F07882309F46DC095
:100CB00040E060E070E0CB010E94FC0581110BC0B8
:100CC00080E0CF91FF90EF90DF90CF90BF90AF90FA
:100CD0009F908F9008958091DD068F7789F780919E
:100CE000E9069091EA06A091EB06B091EC068436F5
:100CF0009105A105B10520F3C090E506D090E60668
:100D0000E090E706F090E806C114D104E104F10494
:100D1000B9F240E0C701B6010E94FC05882381F2C8
:100D200080912A0590912B058115924049F6A0915A
:100D30002F05AA2329F260912D0570912E056115CA
:100D4000710509F4BDCF20912C05222309F4B8CFF9
:100D5000A093DE072093D00790E080E030E0E1E050
:100D6000F0E0C82FAF01082E02C0440F551F0A94AF
:100D7000E2F72417350769F041E0480F0196893002
:100D8000910579F74093D9079BCFC12CD12C7601DF
:100D9000C0CF8093D907209135053091360550E0BA
:100DA00040E02115310541F420914305309144057F
:100DB00040914505509146052093D1073093D207C5
:100DC0004093D3075093D40746015701860E971ED0
:100DD000A11CB11C8092DF079092E007A092E1076E
:100DE000B092E207E0913005F0913105F093E5070C
:100DF000E093E407B0E00E94441DDC01CB01880DC4
:100E0000991DAA1DBB1D8093E6079093E707A09349
:100E1000E807B093E90725E0EE0FFF1F2A95E1F7F9
:100E2000E150FE4FEF2FFF27E6958E0F9F1FA11D6C
:100E3000B11D8093DA079093DB07A093DC07B09392
:100E4000DD078090320590903305B12CA12C8114E0
:100E5000910441F480903F0590904005A090410599
:100E6000B0904205C81AD90AEA0AFB0AC80CD91C74
:100E7000EA1CFB1C04C0F694E794D794C794CA9567
:100E8000D2F7C092D507D092D607E092D707F0925A
:100E9000D80785EFC8168FE0D806E104F10428F4DE
:100EA0008CE08093E30781E00CCF80E125EFC21650
:100EB0002FEFD206E104F104A0F380914B0590914D
:100EC0004C05A0914D05B0914E058093E607909397
:100ED000E707A093E807B093E90780E2E2CF4F92DB
:100EE0005F926F927F928F929F92AF92BF92CF92BA
:100EF000DF92EF92FF920F931F93CF93DF93EC015A
:100F0000423051056105710590F480E0DF91CF9189
:100F10001F910F91FF90EF90DF90CF90BF90AF9017
:100F20009F908F907F906F905F904F9008958985EC
:100F30009A85AB85BC850196A11DB11D84179507C7
:100F4000A607B70710F3CB88DC88ED88FE888F8969
:100F5000803109F042C0BB27A72F962F852F48016B
:100F600059012A013B01C80ED91EEA1EFB1E8091C1
:100F7000000290910102A0910202B0910302C816F2
:100F8000D906EA06FB0699F58F898031C1F5B301D0
:100F9000A201552766277727440F551F415E5A4FF8
:100FA000FA019182808280919804816080939804F4
:100FB0008A89823080F08D819E81AF81B8858C0DC9
:100FC0009D1DAE1DBF1D8093990490939A04A0931C
:100FD0009B04B0939C0481E099CFDB01CA01E7E058
:100FE000B695A79597958795EA95D1F7B8CF40E044
:100FF000C701B6010E94FC058111C6CF86CFB3019F
:10100000A2014F77552766277727440F551F440FB6
:10101000551F415E5A4FFA0180829182A282B382AB
:10102000C2CF8F929F92AF92BF92CF92DF92EF92F8
:10103000FF920F931F93CF93DF93FC0181859285DD
:10104000A385B4850196A11DB11D84179507A60738
:10105000B70770F480E0DF91CF911F910F91FF905F
:10106000EF90DF90CF90BF90AF909F908F900895BA
:1010700083889488A588B6888789803189F5BB27BD
:10108000A72F962F852FE9016A017B018F01BC01F3
:10109000CD01680D791D8A1D9B1D809000029090E6
:1010A0000102A0900202B090030286169706A806DD
:1010B000B90601F5F8018789803111F5DD24EE24A8
:1010C000FF24F601EE0FFF1FE15EFA4F8081918150
:1010D000B0E0A0E088839983AA83BB8381E0BBCF83
:1010E000DB01CA01C7E0B695A79597958795CA9584
:1010F000D1F7C9CF40E00E94FC058111DBCFAACF18
:10110000E894C7F8DD24EE24FF24F601EE0FFF1F5C
:10111000EE0FFF1FE15EFA4F80819181A281B381C2
:10112000BF70D8CF4F925F926F927F92AF92BF9273
:10113000CF92DF92EF92FF920F931F93CF93DF93A3
:1011400000D01F92CDB7DEB78C0149835A836B83E1
:101150007C835901C12CD12C7601412C82E0582E80
:10116000612C712C49815A816B817C819E012F5F9A
:101170003F4FC8010E941108882339F1F801858585
:10118000A301920104C0220F331F441F551F8A95EB
:10119000D2F7DA01C901C80ED91EEA1EFB1E498129
:1011A0005A816B817C818789803111F188EF9FEFB3
:1011B000AFEFBFE0481759076A077B0798F2F501C0
:1011C000C082D182E282F38281E00F900F900F9073
:1011D0000F90DF91CF911F910F91FF90EF90DF90D3
:1011E000CF90BF90AF907F906F905F904F90089599
:1011F00088EF9FEFA0E0B0E0DDCFCF93DF93FC015D
:101200002581222321F080E0DF91CF910895EC0128
:101210008091E307803159F582E08583178A108E2B
:10122000118E128E8091E4079091E507B0E0A0E066
:1012300025E0880F991FAA1FBB1F2A95D1F7838B22
:10124000948BA58BB68B8CEC97E09C8F8B8F81E079
:101250008C831E821F82188619861A861B861C861E
:101260001D861E861F86188A198A1A8ACDCF80325B
:1012700051F683E085834091E6075091E70760913E
:10128000E8077091E907478B508F618F728F9F013C
:101290002D5E3F4F8CEC97E00E9492088111D3CFD6
:1012A000B2CF8F929F92AF92BF92CF92DF92EF9286
:1012B000FF920F931F93CF93DF93EC018D818111E8
:1012C0000EC080E0DF91CF911F910F91FF90EF90C2
:1012D000DF90CF90BF90AF909F908F9008950B8933
:1012E0001C892D893E89041715072607370748F3FF
:1012F0004A015B01823031F48A869B86AC86BD86CA
:1013000081E0E0CF81149104A104B10449F41E826C
:101310001F82188619861A861B861C861D86F0CFAA
:101320000A851B852C853D85EB8DFC8D858590E0A0
:101330000996B901A8014150510961097109082EA6
:1013400004C076956795579547950A94D2F775012D
:101350006401E1E0CE1AD108E108F10804C0F69476
:10136000E794D794C7948A95D2F7C416D506E606B3
:10137000F70620F0012B022B032B11F58F89988D96
:10138000A98DBA8D8E839F83A887B9878E010A5F46
:101390001F4FC114D104E104F10409F4ADCF4E8113
:1013A0005F816885798598018B8D9C8D0E941108DD
:1013B00091E0C91AD108E108F1088111EACF81CF83
:1013C000C41AD50AE60AF70AE1CF3F924F925F921C
:1013D0006F927F928F929F92AF92BF92CF92DF9245
:1013E000EF92FF920F931F93CF93DF93CDB7DEB7AA
:1013F0002C970FB6F894DEBF0FBECDBF5C01DC01A9
:101400005B968D909C905C9716964D905D906D903C
:101410007C901997411451046104710409F468C067
:10142000BFEF4B1A5B0A6B0A7B0A312CF4018185F2
:101430009285A385B4859C01AD012F5F3F4F4F4F2F
:101440005F4F29873A874B875C87730162011D8252
:101450001E821F821886F40181859285A385B4853A
:101460002D813E814F815885281739074A075B0730
:1014700008F056C089859A85AB85BC858C159D057D
:10148000AE05BF0550F482E0C82ED12CE12CF12C22
:1014900092E0492E512C612C712C9E012F5F3F4F01
:1014A000B701A601C4010E9411088823C9F18981EE
:1014B0009A81AB81BC81892B8A2B8B2B09F1260168
:1014C00037019FEF491A590A690A790A2D813E812D
:1014D0004F8158852F5F3F4F4F4F5F4F2D833E8386
:1014E0004F8358873FEFC31AD30AE30AF30AB3CFF7
:1014F000F40140805180628073803324339496CF0E
:10150000C414D504E604F70409F70FEF1FEF2FEF1B
:101510003FE0B701A601C4010E946F07811119C005
:1015200080E02C960FB6F894DEBF0FBECDBFDF91E2
:10153000CF911F910F91FF90EF90DF90CF90BF90D0
:10154000AF909F908F907F906F905F904F903F9063
:101550000895D50116964D915D916D917C911997E5
:10156000411551056105710539F097018601C401E6
:101570000E946F078823A1F2D5011696CD92DD92C5
:10158000ED92FC921997332051F0D701C6010196D4
:10159000A11DB11DF40180839183A283B383F50162
:1015A0008789908DA18DB28D892B8A2B8B2B39F455
:1015B0008481C78AD08EE18EF28E80688483F501A3
:1015C00084818062848381E0ACCF1F93CF93DF93CB
:1015D000FC0125812223D1F1162FEC01848187FFA4
:1015E0002AC0668577858089918941E00E94FC0543
:1015F000882361F1EA8980E2E89FF0011124E15E2D
:10160000FA4F309719F18D81823040F48B899C8993
:10161000AD89BE89848F958FA68FB78F8F89988D5E
:10162000938F828F8F89988DA98DBA8DB58BA48B5E
:101630008C818F778C83111103C08C818F7E8C837A
:10164000812FDF91CF911F910C94D10580E0DF9124
:10165000CF911F910895FF920F931F93CF93DF9324
:10166000EC018D81813041F090E080E0DF91CF91FD
:101670001F910F91FF9008958C8181FFF5CF82FD1E
:101680001BC000911F0710912007C8010E942A0467
:101690000E940904F82EC8010E94F7038FEFF81288
:1016A000E3CF8C8185FF1BC060E0CE010E94E50A7C
:1016B0008C818F7D8C83D8CF4B895C896D897E89A5
:1016C0008A859B85AC85BD8584179507A607B707D6
:1016D000C1F2CE010E9451098111D3CFC5CF4091F3
:1016E000990450919A0460919B0470919C04452B3D
:1016F000462B472B21F080E00E94AD05B5CF8061DD
:101700008C832A853B85317080E092E0821B930BAD
:10171000ADCFCF93DF93EC0161E00E94E50A88230F
:1017200011F01D8281E0DF91CF9108952F923F92B9
:101730004F925F926F927F928F929F92AF92BF92E1
:10174000CF92DF92EF92FF920F931F93CF93DF938D
:1017500000D01F921F92CDB7DEB77C015B01342E03
:101760005D83DC0115968C911597813009F0CEC010
:1017700014962C9021FECAC022FCB4C0C32CDD807C
:1017800022947FE027222094B22DB1702B2ED70116
:101790001A964D915D916D917C911D97C114D10464
:1017A00009F428C15B968D919C915C97FC01748033
:1017B0007A948A019B0169E03695279517950795DC
:1017C0006A95D1F770228A011170711020C001153D
:1017D0001105E9F416964D915D916D917C911997E3
:1017E000411551056105710509F099C057968D9114
:1017F0009D910D90BC91A02D0097A105B10509F018
:10180000B0C0C7010E94E509882309F47FC080E0C9
:1018100092E0801B910B46018C159D0508F44C014C
:10182000D7015B964D915C915C9716968D919D9139
:101830000D90BC91A02D0297A109B109FA0125854F
:1018400004C0880F991FAA1FBB1F2A95D2F746858F
:10185000578560897189840F951FA61FB71F9C014A
:10186000AD01270D311D411D511D29013A01811482
:1018700032E0930609F07BC0809100029091010252
:10188000A0910202B091030284159505A605B70543
:1018900059F48FEF9FEFDC018093000290930102D7
:1018A000A0930202B0930302022D9501B301A2019D
:1018B00080911F07909120070E943F05882331F1F6
:1018C0009EEFB91AC818D908F70182859385A485B7
:1018D000B585880D991DA11DB11D82879387A487A9
:1018E000B58755CFF7014389548965897689828503
:1018F0009385A485B585481759076A077B0709F4BE
:101900003DCFC7010E945109811138CF81E090E09D
:10191000D70113969C938E93129780E007C09E0187
:101920002F5F3F4F0E941108811102C090E079C0E3
:1019300089819A81AB81BC81F701238D348DF901B6
:10194000278948EF5FEF60E070E0203121F048EF39
:101950005FEF6FEF7FE084179507A607B70708F0E2
:1019600050CFF70186839783A087B18750CF0115A9
:10197000110599F5D7011A964D915D916D917C9164
:101980001D9753968D919D910D90BC91A02D481758
:1019900059076A077B0708F181E00E94D105882377
:1019A00009F4B4CF40920002509201026092020208
:1019B0007092030280919804816080939804C8011A
:1019C000815E9A4FD5019C01280D391DFC012E170F
:1019D0003F0759F04D914193FACF41E0C301B20165
:1019E0000E94FC058111EBCF91CF281B390BA20E71
:1019F000B31E68CFF70183899489A589B6898417B6
:101A00009507A607B70738F48481438B548B658B01
:101A1000768B80688483F701848183FD1AC0832DCF
:101A20009D810F900F900F900F900F90DF91CF91AD
:101A30001F910F91FF90EF90DF90CF90BF90AF90EC
:101A40009F908F907F906F905F904F903F902F90DE
:101A5000089561E0C7010E94E50A882309F456CF82
:101A6000DECFCF93DF931F92CDB7DEB7698341E01E
:101A700050E0BE016F5F7F4F0E94960B0F90DF9189
:101A8000CF910895FC01818D928D009719F061E04E
:101A90000C94E50A0895DC015996ED91FC9130977C
:101AA000B9F083899489A589B6894285538564856F
:101AB0007585841B950BA60BB70B811520E8920743
:101AC000A105B10538F08FEF9FE7A0E0B0E00895E1
:101AD00090E080E00895DC0159968D919C910097EB
:101AE00039F0DC01ED91FC910480F581E02D199431
:101AF00090E080E00895CF93DF93EC01E98DFA8DBB
:101B0000309749F481E090E09B838A8390E080E005
:101B1000DF91CF91089513821282898D9A8D0E9450
:101B2000960BE98DFA8D22813381232B59F7F0CF63
:101B3000CF93DF931F92CDB7DEB76983DC01ED91C0
:101B4000FC910280F381E02D41E050E0BE016F5F27
:101B50007F4F19950F90DF91CF9108952F923F926B
:101B60004F925F926F927F928F929F92AF92BF92AD
:101B7000CF92DF92EF92FF920F931F93CF93DF9359
:101B800000D0CDB7DEB7FC018581811118C08FEF81
:101B90009FEF0F900F900F90DF91CF911F910F91BA
:101BA000FF90EF90DF90CF90BF90AF909F908F907D
:101BB0007F906F905F904F903F902F900895848119
:101BC00080FFE5CF4389548965897689828593852D
:101BD000A485B585312C212C481759076A077B0746
:101BE00019F022242394312C6F012101CE0101969A
:101BF0003C01DF011696BB83AA834114510409F40A
:101C0000C5C0F60142855385648575854A01F1E0BA
:101C10009F22D6015B968D919C915C978A019B01D6
:101C2000E9E03695279517950795EA95D1F715962A
:101C3000EC91E230E9F5FC01628D738D848D958D18
:101C4000600F711F821F931FA12C22E0B22EA818D3
:101C5000B9084A145B0408F45201F601248126FDF8
:101C600004C0A114F2E0BF0671F4009100021091CB
:101C7000010220910202309103020617170728077C
:101C8000390709F05EC040E00E94FC05882309F492
:101C90007ECFC401815E9A4FD3019C012A0D3B1D6A
:101CA000FC012E173F0709F46CC041914D93F9CF09
:101CB000DC011496BC90BA94B0228114910479F49A
:101CC000B1100DC0452B462B472B69F5F6018789CE
:101CD000908DA18DB28D86839783A087B187D60121
:101CE0005B96ED91FC915C9716966D917D918D912F
:101CF0009C9119976250710981099109258504C049
:101D0000660F771F881F991F2A95D2F706851785BA
:101D100020893189600F711F821F931F6B0D711D08
:101D2000811D911D91CFD60116964D915D916D91BA
:101D30007C9119972A813B810E9411088111CFCF94
:101D400026CF730185019401AB01BC0180911F076F
:101D5000909120070E949D04882309F418CF6A0CF3
:101D60007B1CF60182859385A485B5858A0D9B1D14
:101D7000A11DB11D82879387A487B5874A185B0888
:101D80003CCF281B390B620E731EEBCF2A942328FD
:101D900009F0FDCE898190E0FCCEFC01818D928D11
:101DA000009711F00C94AE0D8FEF9FEF08950F93F5
:101DB0001F93CF93DF93EC01898D9A8D10E000E0A3
:101DC000009799F00E94AE0D8C010F3F100769F04B
:101DD000898D9A8DFC0142855385648575854150B6
:101DE0005109610971090E945109C801DF91CF9120
:101DF0001F910F910895089520917304260F3327A2
:101E0000331F21323105ECF42091F504FC0190E000
:101E100080E0243069F082E00895A091730421915C
:101E2000AC014D5A5B4FA40FB52FB11D2C930196F9
:101E3000861798F380917304680F6093730480E0B1
:101E4000089581E008951092F50481E08093F404F0
:101E50001092CF0461E084E10E94CE0161E085E14F
:101E60000E94CE01E9EBF0E080818E7F808380814B
:101E70008D7F808388E48093B80085E48093BC00E4
:101E800008951092AC041092AB041092FC041092CE
:101E90001E050E94230F8CEC91E09093AA0480937E
:101EA000A9048DEC91E09093A8048093A704089571
:101EB000CF93DF9391E0909352048823B9F0C091BF
:101EC000B800D091BA008091BC008A7B8093BC009E
:101ED00060E084E10E94CE0160E085E10E94CE01D5
:101EE0000E94230FD093BA00C093B800DF91CF9126
:101EF00008958F929F92AF92BF92CF92DF92EF920E
:101F0000FF920F931F93CF93DF93D0911E05D13291
:101F100008F0D7C0182FC0911D050E945A026B010E
:101F20007C018091F50481116BC082E08093F504FF
:101F30001093F4048FEF8093F3041092F204D09383
:101F4000F104ADEFB4E0E1EDF4E080E0D81391C02E
:101F50001092D0048091D004CC0FC82BC093D00431
:101F60008091CF04813009F088C01092CF040E9484
:101F70005A026B017C018091D0048093BB00809158
:101F8000F7049091F804A091F904B091FA04892B18
:101F90008A2B8B2BA1F00E945A020091F70410911A
:101FA000F8042091F9043091FA046C197D098E0926
:101FB0009F09061717072807390708F442C08091C0
:101FC000BC0083FDD8CF85EC8093BC000E945A02F0
:101FD0006B017C018091F504823009F450C080913E
:101FE000F3048F3F09F46FC08091F304803209F449
:101FF0006CC08091F304803309F469C084E026C08A
:102000008091F7049091F804A091F904B091FA043A
:10201000892B8A2B8B2B09F484CF0E945A02809043
:10202000F7049090F804A090F904B090FA046C19A9
:102030007D098E099F0986169706A806B90608F03D
:1020400070CF8091F6040E94580F85E01092FC0436
:1020500010921E051092FB04DF91CF911F910F91FA
:10206000FF90EF90DF90CF90BF90AF909F908F90B8
:1020700008959D9191938F5F69CF85EEA5CF809153
:10208000F7049091F804A091F904B091FA04892B17
:102090008A2B8B2B09F49ECF0E945A020091F704E1
:1020A0001091F8042091F9043091FA046C197D091B
:1020B0008E099F09061717072807390708F08ACFE6
:1020C000C0CF81E0C3CF80E0C1CF82E0BFCF83E04B
:1020D000BDCFCF93DF93EA01DC0111968D919C91E6
:1020E000DC01ED91FC910280F381E02D1995C81778
:1020F000D90729F481E00E94790F91E0811190E0E5
:10210000892FDF91CF910895CF93DF93EC018B81DD
:102110008823A1F0888191E09093FB0480931D05B2
:102120001092FC0410921E0581E00E94790F91E04C
:10213000811190E0892FDF91CF9108950E94410F86
:1021400081E08B83CE010E948410982F8111E2CF11
:10215000F1CF0895E091AC048091AB04E81730F41E
:10216000F0E0E355FB4F808190E008958FEF9FEF03
:1021700008959091AC048091AB042FEF3FEF981736
:1021800048F4E92FF0E0E355FB4F208130E09F5FFA
:102190009093AC04C90108958091AB049091AC0474
:1021A000891B990B0895CF92DF92EF92FF920F93C4
:1021B0001F93CF93DF937C01CB018A012091FB0415
:1021C000222389F0EB016B01C40ED51ECC15DD0571
:1021D00069F06991D701ED91FC910190F081E02DBA
:1021E000C7011995F3CF642F0E94FC0EC801DF913F
:1021F000CF911F910F91FF90EF90DF90CF900895B6
:10220000CF93DF931F92CDB7DEB769832091FB0494
:102210002223F9F020911E05203258F021E030E011
:10222000FC013383228390E080E00F90DF91CF9117
:1022300008958091FC04E82FF0E0E350FB4F998172
:1022400090838F5F8093FC0480931E0581E090E073
:10225000ECCF61E0CE0101960E94FC0EF7CFFC01AD
:10226000248131E03093FB0420931D051092FC047F
:1022700010921E058485682B89E098E00E94001169
:1022800081E00C94790F90E080E008952F923F92C6
:102290004F925F926F927F928F929F92AF92BF9276
:1022A000CF92DF92EF92FF920F931F93CF93DF9322
:1022B0001F92CDB7DEB78FE089838091CD049091D6
:1022C000CE04DC0114962D913C911597232B89F0B7
:1022D0002C9131E03093FB0420931D051092FC04F7
:1022E00010921E0541E050E0BE016F5F7F4F0E94DB
:1022F0006910E090CD04F090CE04DD24D394332413
:102300003A9485EEA82E95ECB92E01E0F701848170
:102310009581892B09F400E0802E912CD7012C9017
:102320000E945A022B013C018091F504811164C086
:10233000102FD092F5040093F4043092F30410921D
:10234000F2048FEF800F8093F104D092D00480913B
:10235000D004220C282A2092D0048091CF0481300E
:1023600009F08CC01092CF040E945A022B013C014C
:102370008091D0048093BB008091F7049091F80481
:10238000A091F904B091FA04892B8A2B8B2BA1F030
:102390000E945A022091F7043091F8044091F90408
:1023A0005091FA04641975098609970926173707A9
:1023B0004807590708F441C08091BC0083FDD8CF7D
:1023C000B092BC000E945A022B013C018091F5049E
:1023D000813009F456C08091F204801710F41091F6
:1023E000F204E1EDF4E0ADEAB4E080E0811751F1F0
:1023F00091919D938F5FFACF8091F7049091F804AB
:10240000A091F904B091FA04892B8A2B8B2B09F443
:102410008BCF0E945A022091F7043091F80440912A
:10242000F9045091FA046419750986099709261769
:1024300037074807590708F077CF8091F6040E94C4
:10244000580F10E01092AC041093AB04012F10E071
:1024500008151905D9F530E020E02017310798F567
:10246000F70181819281DC01ED91FC910284F38579
:10247000E02D199521E030E0C82EEFCFA092BC00EE
:10248000A1CF8091F7049091F804A091F904B09144
:10249000FA04892B8A2B8B2B09F498CF0E945A02BD
:1024A0002091F7043091F8044091F9045091FA0416
:1024B00064197509860997092617370748075907C8
:1024C00008F084CFBACF012B09F41FCF8C2D0F90C9
:1024D000DF91CF911F910F91FF90EF90DF90CF9000
:1024E000BF90AF909F908F907F906F905F904F9034
:1024F0003F902F9008950F931F93CF938C01C62F79
:102500000E942F116C2F6460C8010E942F116C2F44
:102510006B7FC8010E942F1183EC90E00197F1F7C7
:10252000CF911F910F9108950F931F93CF93DF9336
:102530008C01D62FC42F607F642B0E947B1280E118
:10254000D89FB00111246C2BC801DF91CF911F914E
:102550000F910C947B12CF93DF9300D000D01F9289
:102560001F92CDB7DEB798E0EAE0F2E0DE01119607
:1025700001900D929A95E1F790913808961710F412
:102580006FEF690F262F30E0220F331F41E050E03C
:102590004C0F5D1F240F351FF9016081680F6068C3
:1025A00040E080E398E028960FB6F894DEBF0FBEB7
:1025B000CDBFDF91CF910C94941241E00E94941210
:1025C00081E090E00895FB0101900020E9F7319748
:1025D000AF01461B570BDC01ED91FC910280F381AA
:1025E000E02D19940F931F93CF93DF93EC010E947A
:1025F000E3128C0160E672E0CE010E94E312800FCC
:10260000911FDF91CF911F910F91089585ED8093D8
:10261000BC008091F7049091F804A091F904B09166
:10262000FA040796A11DB11D23E0B695A7959795CD
:1026300087952A95D1F72091BC0024FD03C0109204
:10264000F50408954091F7045091F8046091F9045D
:102650007091FA04452B462B472B69F30097A1058F
:10266000B10541F02AE22A95F1F700C00197A109CE
:10267000B109E1CF8091F6040C94580F1F920F928C
:102680000FB60F9211242F933F938F939F93AF9385
:10269000BF9380919F049091A004A091A104B09158
:1026A000A20430919E0423E0230F2D3758F50196A4
:1026B000A11DB11D20939E0480939F049093A004BC
:1026C000A093A104B093A2048091A3049091A404C8
:1026D000A091A504B091A6040196A11DB11D8093FF
:1026E000A3049093A404A093A504B093A604BF915F
:1026F000AF919F918F913F912F910F900FBE0F90AF
:102700001F90189526E8230F0296A11DB11DD2CF68
:102710001F920F920FB60F9211240BB60F922F93A8
:102720003F934F935F936F937F938F939F93AF9359
:10273000BF93EF93FF9381E297E00E943103FF91F3
:10274000EF91BF91AF919F918F917F916F915F9129
:102750004F913F912F910F900BBE0F900FBE0F9096
:102760001F9018951F920F920FB60F9211240BB65F
:102770000F922F938F939F93EF93FF93E0913107E5
:10278000F09132078081E0913707F091380782FDA0
:102790001DC0908180913A078F5F8F7320913B0716
:1027A000821741F0E0913A07F0E0EF5DF84F958F26
:1027B00080933A07FF91EF919F918F912F910F9006
:1027C0000BBE0F900FBE0F901F9018958081F2CF17
:1027D0001F920F920FB60F9211240BB60F922F93E8
:1027E0003F934F935F936F937F938F939F93AF9399
:1027F000BF93EF93FF938091B900887F803609F4EF
:102800004DC008F040C0883209F4A9C028F58031D5
:1028100009F49DC0C8F4882309F4FBC0883009F48A
:1028200096C0FF91EF91BF91AF919F918F917F9152
:102830006F915F914F913F912F910F900BBE0F9031
:102840000FBE0F901F901895883109F488C0803210
:1028500041F78093F30414C0803409F49DC040F420
:102860008033B9F38833E9F68093F30485ECB0C084
:10287000803509F485C0883509F496C0883489F616
:102880000E940613CECF883909F48CC038F58837FA
:1028900029F050F4883611F0803719F683E08093E0
:1028A000F5041092950457C0883809F47BC080392C
:1028B00019F0803809F0B5CF80919504803208F086
:1028C00071C0E091950481E08E0F80939504809112
:1028D000BB00F0E0EB58FB4F80833DC0803B39F0FC
:1028E000E0F4803A09F479C0883A09F09ACF84E09C
:1028F0008093F5041092740410927304E091A9047B
:10290000F091AA0419958091730481110FC081E0A0
:10291000809373041092530409C0803C09F4A6CF3D
:10292000883C09F4A3CF883B09F07BCFE091740485
:1029300081E08E0F80937404F0E0ED5AFB4F8081AC
:102940008093BB00909174048091730429C080919E
:10295000D0048093BB0085EC8093BC0062CF909143
:10296000F2048091F104981758F5E091F20481E0A7
:102970008E0F8093F204F0E0EF52FB4F8081E9CF9D
:10298000E091F20481E08E0F8093F2048091BB000D
:10299000F0E0EF52FB4F80839091F2048091F104BC
:1029A0009817C8F285E8D8CFE091F20481E08E0F45
:1029B0008093F2048091BB00F0E0EF52FB4F8083E4
:1029C0008091F40481115CCF81E08093CF0484EA8C
:1029D0008093BC001092F50424CF85EC8093BC005A
:1029E0001092F50480919504803230F4E0919504C2
:1029F000F0E0EB58FB4F10826091950470E0E0919D
:102A0000A704F091A80485E794E019951092950425
:102A100008CF1092F30434CFCF93DF93FC0182816F
:102A20009381909318088093170884819581A681DB
:102A3000B7818093190890931A08A0931B08B0934C
:102A40001C0880859185A285B38580931D0890938D
:102A50001E08A0931F08B0932008DF011C96CF0129
:102A60004996C1E2D8E02D912993A817B907D9F763
:102A7000818D928D90932F0880932E0885E198E0A8
:102A8000DF91CF910895FC01DB0112968D919C910D
:102A900013979383828388E292E0918380831496D4
:102AA0008C911497848315968C911597858316962F
:102AB0004D915D916D917C91199746835783608705
:102AC00071871A964D915D916D917C911D9742870A
:102AD0005387648775871E964D915D916D917C91AA
:102AE000519746875787608B718B52968C9152977E
:102AF000828B53964D915D916D917C915697438B4E
:102B0000548B658B768B57964D915D916D917C9131
:102B10005A97478B508F618F728F5B968D919C91E6
:102B2000948F838F0895FC01908190539A3008F020
:102B300090E0818180532AE0929F800D11240895B6
:102B4000CF92DF92EF92FF921F93CF93DF93EC012E
:102B500080E2689FF0011124E15EFA4F9385917144
:102B600061F0842F827449F080E0DF91CF911F9152
:102B7000FF90EF90DF90CF900895142F6A8B809193
:102B8000000290910102A0910202B09103028E878F
:102B90009F87A88BB98BC488D588F12CE12C76014E
:102BA000DD24CC24CF8AD88EE98EFA8E828D938D47
:102BB000B0E0A0E0AC01BD014C295D296E297F2960
:102BC0004F8B588F698F7A8F83858871B1F4848D8C
:102BD000958DA68DB78D8B8B9C8BAD8BBE8B81E03D
:102BE0008D831F701C831E821F82188619861A8689
:102BF0001B861C861D8681E0B8CF803109F0B4CFDA
:102C00009E012D5E3F4F8B8D9C8D0E9492088823E4
:102C100009F4AACF84E0E4CF3F924F925F926F9283
:102C20007F928F929F92AF92BF92CF92DF92EF925C
:102C3000FF920F931F93CF93DF9300D000D000D06B
:102C40001F921F92CDB7DEB77C01FE013196CE01F7
:102C50000C966F0130E23193E817F907E1F7DA01DA
:102C600030E087E09D91B92E992309F43CC09E3253
:102C7000F1F48A30C9F480E02B960FB6F894DEBFE9
:102C80000FBECDBFDF91CF911F910F91FF90EF90BD
:102C9000DF90CF90BF90AF909F908F907F906F907C
:102CA0005F904F903F90089538E08AE0DBCFECEBE7
:102CB000F1E04491442321F031969413FACFDBCF15
:102CC0008317C8F24FED490F4E35A8F64FE9490F6B
:102CD0004A3118F440EEB42EB90EF601E30FF11D9F
:102CE000B0823F5FBFCF8981803229F2322E8B01C3
:102CF000DB015B968D919C915C97F701948F838F9C
:102D000016961D921D921D921C921997FB01128618
:102D1000138614861586F80182859385A485B5856A
:102D2000438954896589768984179507A607B7076B
:102D300008F04DC025E0B695A795979587952A95FB
:102D4000D1F7F82FFF70AF2ED80115968C918230F5
:102D500008F491CFC8010E94AE0D97FD8CCFF80109
:102D600082859385A485B5854F96A11DB11D828767
:102D70009387A487B587F0E2AF9EB0011124615E0E
:102D80007A4F6115710509F476CFDB018C918823A8
:102D900041F0853E09F062C0BB2029F0BB24B3940A
:102DA000BACFB1100EC0F701A28A809100029091B3
:102DB0000102A0910202B091030286879787A08B3F
:102DC000B18BDB018C918111E9CFBB24B394832DAE
:102DD0008271823109F04FCFBB2009F44DC0F70159
:102DE000668577858089918941E00E94FC0588236A
:102DF00009F441CFD70152968C91B0E28B9FC0016C
:102E00001124815E9A4F009709F435CFFC013A9660
:102E100026E1DF011D922A95E9F72BE0F601DC019E
:102E200001900D922A95E1F721E238E2FC01318B05
:102E3000208B40E058E057874687338B228B318FB9
:102E4000208F578B468B81E00E94D105882309F49F
:102E500012CF432DD70152966C910AC04BE050E03F
:102E6000C6010E94AB1E892B09F055CF432D6A2D58
:102E7000C7010E94A01500CFF8018581823009F4B6
:102E8000FACEC8010E94E509882309F4F4CED801DE
:102E90005B96ED91FC915C9716968D909D90AD9010
:102EA000BC901997B2E08B1A9108A108B1088585EA
:102EB00004C0880C991CAA1CBB1C8A95D2F7868575
:102EC0009785A089B189880E991EAA1EBB1E848190
:102ED00024013501480E511C611C711C8414950499
:102EE000A604B70409F1E1E04E1A5108610871081F
:102EF00081E00E94D105882309F4BDCEEFE1F5E021
:102F000011928FE197E08E179F07D1F74092000250
:102F10005092010260920202709203028091980422
:102F2000816080939804DACFD8015B96ED91FC9193
:102F3000258580E092E0A0E0B0E004C0880F991FF2
:102F4000AA1FBB1F2A95D2F7F801438954896589C6
:102F50007689840F951FA61FB71F838B948BA58B33
:102F6000B68BD70152961C928FE195E04FCFEF922E
:102F7000FF920F931F93CF93DF93EC017B018A01A4
:102F80001B821A8288EE93E0A0E0B0E08C839D83E0
:102F9000AE83BF8386E492E0998388838DE190E0DD
:102FA0000E94861D9A8F898F009779F02DE1F70195
:102FB000DC0101900D922A95E1F74CE050E0B80158
:102FC000CE010C960E94B81E188EDF91CF911F91F2
:102FD0000F91FF90EF900895CF92DF92FF920F93A1
:102FE0001F93CF93DF93CDB7DEB7C755D1090FB687
:102FF000F894DEBF0FBECDBF8C01F62E1C821B8263
:1030000088E2C82E82E0D82EDA82C9821E82CE01E2
:1030100001960E94FD08BE016F5F7F4FCE01CB96E7
:103020000E94431519A218A2DF8ECE8E1BA22196F4
:103030008FAD2197811122C0F8011382128288EE90
:1030400093E0A0E0B0E084839583A683B78386E411
:1030500092E091838083128E118E1486C801C95A22
:10306000DF4F0FB6F894DEBF0FBECDBFDF91CF911B
:103070001F910F91FF90DF90CF9008952F2D4FE378
:1030800054E0BE01655C7F4FCE014E960E940C1647
:10309000882391F2CE01CB960E94890B8F2D8670EA
:1030A000863041F449A95AA96BA97CA9CE014E9654
:1030B0000E945109BE01625E7F4FCE0101960E94BF
:1030C00043154FE354E0BE016F5F7F4FC8010E947C
:1030D000B717C4CFE1E2F7E01382128288EE93E0E3
:1030E000A0E0B0E084839583A683B78326E132E035
:1030F0003183208325EC30E03587248724EC30E0D1
:103100003787268720EC30E0318B208B21EC30E0B4
:10311000338B228B22EC30E0358B248B26EC30E095
:10312000378B268B118E128E138E148EEEEBF7E0FA
:1031300020E520831182E0ECF7E0158216821186EB
:10314000138642E050E060E070E044875587668770
:10315000778713A215A614A628E232E033A722A788
:1031600017A6E9E0F8E01382128284839583A68390
:10317000B78324E332E031832083E0E3F8E0138275
:10318000128228E532E031832083118627E22483EE
:1031900024E1228724E023871486E5E1F8E0138206
:1031A000128284839583A683B78386E492E0918319
:1031B0008083128E118E14860895CF93DF93CDB73E
:1031C000DEB76D970FB6F894DEBF0FBECDBF789413
:1031D00084B5826084BD84B5816084BD85B582601C
:1031E00085BD85B5816085BD80916E0081608093CD
:1031F0006E00109281008091810082608093810036
:103200008091810081608093810080918000816045
:10321000809380008091B10084608093B1008091A0
:10322000B00081608093B0008091910082608093B3
:103230009100809191008160809391008091900035
:103240008160809390008091A10082608093A100B2
:103250008091A10081608093A1008091A000816095
:103260008093A00080912101826080932101809150
:1032700021018160809321018091200181608093F0
:10328000200180917A00846080937A0080917A0096
:10329000826080937A0080917A00816080937A00C6
:1032A00080917A00806880937A001092C100E0914A
:1032B0003107F091320782E08083E0912D07F09191
:1032C0002E071082E0912F07F09130078FEC80835A
:1032D00010923907E0913507F091360786E0808338
:1032E000E0913307F0913407808180618083E09121
:1032F0003307F0913407808188608083E091330741
:10330000F0913407808180688083E0913307F091E9
:10331000340780818F7D80830E94410F1092350891
:1033200080913B08823018F098E0909335088093A4
:10333000380862E370E080E090E00E947F026091D4
:103340003C0880E398E00E942F1168EE73E080E073
:1033500090E00E947F0260E380E398E00E947B128D
:103360006BE4E62E66E4F62EC7010197F1F760E301
:1033700080E398E00E947B12C7010197F1F760E3B8
:1033800080E398E00E947B1283E592E00197F1F7D9
:1033900060E280E398E00E947B12609135086062F1
:1033A00040E080E398E00E94941284E08093360825
:1033B00040E06CE080E398E00E94941240E061E01D
:1033C00080E398E00E9494128BE39FE10197F1F76C
:1033D00080913908882321F060E080E00E94AB12E0
:1033E00082E08093370840E066E080E398E00E9446
:1033F000941240E062E080E398E00E9494128BE334
:103400009FE10197F1F788E080933C0860E080E35A
:1034100098E00E942F1160E083E00E94AB1263E607
:1034200072E080E398E00E94E31261E082E00E9493
:10343000AB1261E772E080E398E00E94E31262E081
:1034400080E00E94AB1262E872E080E398E00E94A4
:10345000E31263E082E00E94AB1267E972E080E36E
:1034600098E00E94E3128091CD049091CE040097E1
:1034700011F00E94221E86E090E00E94861D7C01D1
:1034800088E6F701808389E098E092838183138244
:1034900080E290E095838483F092CE04E092CD04A4
:1034A0000E94410F81E0F7018383C7010E948410CD
:1034B000811111C069EA72E081E297E00E94F21284
:1034C00081E297E00E94A0036AE070E080E090E073
:1034D0000E947F02F9CF0E94461190E0880F892F49
:1034E000881F990B892B09F41CC16BEB72E081E2F8
:1034F00097E00E94F2124BE050E060EE71E0CE01E6
:1035000001960E943B1DCE010A960E949315082F3A
:10351000E981E154E331E8F40E2E000CFF0B88271B
:10352000EB56F54E8F4F0C947E1DFE1AA91AA91A60
:10353000121BA91AA81AA91AA91AA91AF21AA91AC1
:10354000A91A051B101B0E1BA91AA91AA91A0C1BD4
:1035500012E0CE0105960E949315F82E48E050E047
:1035600067ED71E0CE0101960E943B1DCE010196F0
:103570000E949315E82ECE0104960E949315D82E32
:10358000CE0107960E949315382F1A8219822AE0DD
:10359000622F0E945E1D982F880F890F880F830F5E
:1035A0008A838D2D0E945E1D982F880F890F880FAA
:1035B0008D0D8B838E2D0E945E1D982F880F890F95
:1035C000880F8E0D8C83602F70E02F2D30E0ECEC97
:1035D000F1E081E0811740F59491290F311D8F5F53
:1035E0003196F8CF8A8111E0813609F4B2CF8B8110
:1035F00017E08E3609F0ADCF16E0ABCF8B8118E027
:10360000823709F0A6CF14E0A4CF8B8115E0823772
:1036100009F09FCF13E09DCF19E09BCF1AE099CF1F
:103620001BE097CF1CE095CF133028F0802F8370DC
:1036300011F42F5F3F4FCB01039696958795969592
:103640008795EDE6F1E06E9FA0016F9F500D7E9F84
:10365000500D11244B5F5F4F840F951F820F931FF6
:1036600067E070E00E946A1D811101C087E08D83D0
:103670002AE08F2D622F0E945E1D982F880F890FE0
:10368000880F8F0D8E83812F0E945E1D982F990FBA
:10369000890F880F180F1F83802F0E945E1D982F9F
:1036A000880F890F880F800F88878091CD049091B3
:1036B000CE04FC01248135812830310588F0208139
:1036C00031E03093FB0420931D051092FC0410920E
:1036D0001E0548E050E0BE016F5F7F4F0E946910F9
:1036E0000E9446119FE09C8F8F778D8F8091CD0433
:1036F0009091CE04FC01248135812230310588F07F
:10370000208131E03093FB0420931D051092FC04CE
:1037100010921E0542E050E0BE01645E7F4F0E94A1
:1037200069106FED72E081E297E00E94E3128091F0
:10373000EF07882321F08AEE97E00E94890B109210
:10374000CB071092C9071092C6071092C50787E0F1
:103750008093C4070E94B1028B018091C4070E942C
:10376000AD0161E08091C4070E94CE01FFB6F894DC
:1037700080919D04811124C0EBE9F2E08491E1EE97
:10378000F2E09491E82FF0E0EE0FFF1FE45BFD4FB5
:10379000A591B491EC91E92321F461E085E30E94C5
:1037A000CE0185E30E94AD018CB580618CBD8CB5E6
:1037B00080648CBD84E30E94AD0183E30E94AD016F
:1037C00080919D048F5F80939D04FFBE82E580936E
:1037D000BE071092BF078091BE079091BF070E945D
:1037E00027042AE0F22E8FEF0E940204FA94F110CF
:1037F000FACF80EC97E00E942A0420E030E0A90193
:1038000060E080EC97E00E944004F82E8093CA07A5
:10381000F1E08F1769F10E94B102601B710B613DED
:10382000774058F381E08093C50780EC97E00E94D1
:10383000F7036CE073E081E297E00E94F21264E328
:1038400073E081E297E00E94F2126BE473E081E2A0
:1038500097E00E94F21266E673E081E297E00E9430
:10386000F2126BEA73E081E297E00E94F212FFCF5E
:103870002AEA31E040E050E068E080EC97E00E9406
:10388000400482FF2AC0F092CB078091CB07C12C65
:10389000D12C7601823029F4C12CD12CE12C80E48A
:1038A000F82E20E030E0A90167E380EC97E00E9469
:1038B0004004A701960169E280EC97E00E94400471
:1038C0008093CA078823D1F00E94B102601B710B5C
:1038D000613D774030F388E0A6CF94E0F92E0E9456
:1038E00009048093CA07FA94F110F9CF8A3A11F0CB
:1038F00082E099CF82E08093CB07C7CF8091CB073E
:103900008230D1F420E030E0A9016AE380EC97E056
:103910000E944004882311F086E085CF0E940904AC
:10392000807C803C19F483E08093CB070E940904DB
:103930000E9409040E94090480EC97E00E94F703AA
:1039400080E58093BE071092BF0781E00E94460683
:103950008823F9F08AEE97E00E94FD08882309F495
:1039600068CF67EF72E081E297E00E94F21267E1B0
:10397000CE0101960E94EC17CE0101960E940C1513
:10398000E0912E08F0912F08309751F461E374E034
:103990002AC080E00E944606882309F44ACFDACF85
:1039A0008581882399F369E074E081E297E00E94C1
:1039B000E31260E274E085E198E00E94F2128091E7
:1039C0002E0890912F08009761F00E94890B80913A
:1039D0002E0890912F080E94221E10922F081092FC
:1039E0002E0866E073E081E297E00E94F21261E047
:1039F000CE0101960E94EC17CE0101960E940C1593
:103A0000E0912E08F0912F08309771F1858188237D
:103A100059F168E474E081E297E00E94F21285E1D6
:103A200098E00E944B0D892B51F085E198E00E94AF
:103A3000CD0E682F81E297E00E945303F0CF809172
:103A40002E0890912F08009761F00E94890B8091B9
:103A50002E0890912F080E94221E10922F0810927B
:103A60002E080E94C003FDCF61E374E081E297E07D
:103A70000E94F212F6CFFB01DC0102C005900D920C
:103A800041505040D8F708950E944F1DA59F900DBA
:103A9000B49F900DA49F800D911D11240895A29FA5
:103AA000B001B39FC001A39F700D811D1124911D12
:103AB000B29F700D811D1124911D0895991B79E00D
:103AC00004C0991F961708F0961B881F7A95C9F7AE
:103AD00080950895AA1BBB1B51E107C0AA1FBB1FFD
:103AE000A617B70710F0A61BB70B881F991F5A958A
:103AF000A9F780959095BC01CD010895EE0FFF1FA9
:103B0000881F8BBF0790F691E02D19940F931F9398
:103B1000CF93DF938230910510F482E090E0E09142
:103B20003F08F091400830E020E0B0E0A0E030979E
:103B300099F42115310509F44AC0281B390B2430AA
:103B40003105D8F58A819B816115710589F1FB01E9
:103B500093838283FE0111C04081518102811381D0
:103B600048175907E0F04817590799F4109761F082
:103B700012960C93129713961C933296CF01DF91F5
:103B8000CF911F910F91089500933F081093400823
:103B9000F4CF2115310551F04217530738F0A90130
:103BA000DB019A01BD01DF01F801C1CFEF01F9CFBF
:103BB0009093400880933F08CDCFFE01E20FF31FA2
:103BC000819391932250310939832883D7CF209153
:103BD0003D0830913E08232B41F42091060230919C
:103BE000070230933E0820933D0820910402309153
:103BF00005022115310541F42DB73EB74091080269
:103C000050910902241B350BE0913D08F0913E08CC
:103C1000E217F307A0F42E1B3F0B2817390778F0A3
:103C2000AC014E5F5F4F2417350748F04E0F5F1F02
:103C300050933E0840933D08819391939FCFF0E0CD
:103C4000E0E09CCFCF93DF930097E9F0FC0132973F
:103C500013821282A0913F08B0914008ED0130E03C
:103C600020E01097A1F420813181820F931F2091D1
:103C70003D0830913E082817390709F061C0F093DC
:103C80003E08E0933D08DF91CF910895EA01CE17F9
:103C9000DF07E8F54A815B819E0141155105B1F7C7
:103CA000E901FB83EA8349915991C40FD51FEC17B1
:103CB000FD0761F4808191810296840F951FE901CF
:103CC00099838883828193819B838A83F0E0E0E0FB
:103CD00012968D919C9113970097B9F52D913C9177
:103CE0001197CD010296820F931F20913D083091CC
:103CF0003E082817390739F6309751F510924008D9
:103D000010923F08B0933E08A0933D08BCCFD383E8
:103D1000C28340815181840F951FC817D90761F470
:103D20004E5F5F4F88819981480F591F51834083AF
:103D30008A819B81938382832115310509F0B0CF5D
:103D4000F0934008E0933F089ECFFD01DC01C0CF17
:103D500013821282D7CFFB01DC0104C08D91019048
:103D6000801921F441505040C8F7881B990B0895E1
:103D7000FB01DC014150504048F001900D920020C1
:103D8000C9F701C01D9241505040E0F70895F894E2
:023D9000FFCF63
:103D9200FFFFFFFF00004108800000004000140008
:103DA2005400000000005303BD02EA02A0031B03FB
:103DB200F9020D0300000000310DBD022B0BFB0EBA
:103DC200000000000011D3104311A910CC10B9104B
:103DD200AA1000000000980D7B0D6B0D420D4B0DDB
:103DE200CD0ED70E00000000DD12BD024311FB0E06
:103DF2000D0A0048656C6C6F2C20776F726C642121
:103E0200005977726F626F742041726475696E6FC8
:103E1200210041726475696E6F204C434D204949FF
:103E220043203230303400506F776572204279205F
:103E320045632D7975616E2100436F756C646E2741
:103E4200742066696E642052544300525443206CBD
:103E52006F737420706F7765722C206C6574277392
:103E620020736574207468652074696D652100494A
:103E72006E697469616C697A696E67205344206364
:103E82006172642E2E2E00696E697469616C697AA2
:103E92006174696F6E20646F6E652E00696E69745D
:103EA20069616C697A6174696F6E206661696C65BB
:103EB200642E205468696E677320746F206368658E
:103EC200636B3A00312E2069732061206361726452
:103ED20020696E7365727465643F00322E206973C7
:103EE20020796F757220776972696E6720636F72CD
:103EF200726563743F00332E2064696420796F75A4
:103F0200206368616E676520746865206368697004
:103F120053656C6563742070696E20746F206D61E7
:103F220074636820796F757220736869656C6420A8
:103F32006F72206D6F64756C653F004E6F74653AE9
:103F42002070726573732072657365742062757474
:103F5200746F6E206F6E2074686520626F61726488
:103F620020616E642072656F70656E20746869737B
:103F72002053657269616C204D6F6E69746F722097
:103F8200616674657220666978696E6720796F75FB
:103F920072206973737565210057726974696E675F
:103FA20020746F20746573742E7478742E2E2E0014
:103FB20074657374696E6720312C20322C20332E85
:103FC200006572726F72206F70656E696E67207421
:103FD2006573742E74787400746573742E747874B7
:023FE2003A00A3
:00000001FF
